:100000001CC0CDC0CCC041C0CAC0C9C0C8C0C7C0D8
:10001000C6C0C5C0C4C0C3C0C2C0C1C0C0C0BFC0CC
:10002000BEC0BDC0BCC0BBC0BAC0B9C0B8C0B7C0FC
:10003000B6C0B5C03F003F02800011241FBECFEF05
:10004000CDBFDFE3DEBFE4E3F0E040E017C0B591F1
:10005000A59135912591059107FD0CC0959185914C
:10006000EF01F92FE82F05900D92A217B307D9F7EA
:10007000FE0104C01D92A217B307E1F7E933F407AC
:0A00800031F762D07DC0F894FFCF85
:10008A001F920F920FB60F9211242F933F934F9303
:10009A005F936F937F938F939F93AF93BF93EF93E6
:1000AA00FF93199B05C0E091003FF091013F09952C
:1000BA008FEF83B9FF91EF91BF91AF919F918F918C
:1000CA007F916F915F914F913F912F910F900FBE4A
:0600DA000F901F90189525
:1000E00040E068ED80E690E056D041E168ED81E6C1
:1000F00090E051D040E068ED82E690E04CD040E0E6
:1001000068ED80E790E047D040E068ED88E790E058
:0401100042D008953C
:10011400E0E0F4E082E084838083108A118A128A0A
:10012400138A148A158A168A178AE0E0F2E010828C
:1001340011821282138280ED90E08093003F9093AD
:04014400013F0895DA
:1001480022D0069A019AE0E0F4E092E080E49783F6
:10015800878325E136E145E0215030404040E1F712
:02016800F6CFD0
:10016A0040E068ED80E191E011D0E0E1F1E0128237
:06017A00138280E00895ED
:0E018000EC0110D00ED0CE010ED0CE010DD06D
:08018E00A8DFC1DFEBDF0895DB
:08019600FC0164BF40830895E1
:02019E0030CF60
:0201A0000895C0
:0201A2000895BE
:0201A4000895BC
:0201A6000895BA
:0201A8006EDF08
:02000004008278
:090000000000020000C40700002A
:00000001FF
